{
  "_format": "hh-sol-artifact-1",
  "contractName": "Dwitter",
  "sourceName": "contracts/Dtwitter.sol",
  "abi": [
    {
      "inputs": [
        {
          "internalType": "uint256",
          "name": "",
          "type": "uint256"
        }
      ],
      "name": "dweets",
      "outputs": [
        {
          "internalType": "address",
          "name": "author",
          "type": "address"
        },
        {
          "internalType": "string",
          "name": "content",
          "type": "string"
        },
        {
          "internalType": "uint256",
          "name": "timestamp",
          "type": "uint256"
        },
        {
          "internalType": "uint256",
          "name": "likes",
          "type": "uint256"
        },
        {
          "internalType": "string",
          "name": "avatar",
          "type": "string"
        }
      ],
      "stateMutability": "view",
      "type": "function"
    },
    {
      "inputs": [],
      "name": "getDweets",
      "outputs": [
        {
          "components": [
            {
              "internalType": "address",
              "name": "author",
              "type": "address"
            },
            {
              "internalType": "string",
              "name": "content",
              "type": "string"
            },
            {
              "internalType": "uint256",
              "name": "timestamp",
              "type": "uint256"
            },
            {
              "internalType": "uint256",
              "name": "likes",
              "type": "uint256"
            },
            {
              "internalType": "string",
              "name": "avatar",
              "type": "string"
            }
          ],
          "internalType": "struct Dwitter.Dweet[]",
          "name": "",
          "type": "tuple[]"
        }
      ],
      "stateMutability": "view",
      "type": "function"
    },
    {
      "inputs": [
        {
          "internalType": "address",
          "name": "_wallet",
          "type": "address"
        }
      ],
      "name": "getUser",
      "outputs": [
        {
          "components": [
            {
              "internalType": "address",
              "name": "wallet",
              "type": "address"
            },
            {
              "internalType": "string",
              "name": "name",
              "type": "string"
            },
            {
              "internalType": "string",
              "name": "username",
              "type": "string"
            },
            {
              "internalType": "string",
              "name": "bio",
              "type": "string"
            },
            {
              "internalType": "string",
              "name": "avatar",
              "type": "string"
            }
          ],
          "internalType": "struct Dwitter.User",
          "name": "",
          "type": "tuple"
        }
      ],
      "stateMutability": "view",
      "type": "function"
    },
    {
      "inputs": [
        {
          "internalType": "string",
          "name": "_content",
          "type": "string"
        }
      ],
      "name": "postDweet",
      "outputs": [],
      "stateMutability": "nonpayable",
      "type": "function"
    },
    {
      "inputs": [
        {
          "internalType": "string",
          "name": "_username",
          "type": "string"
        },
        {
          "internalType": "string",
          "name": "_name",
          "type": "string"
        },
        {
          "internalType": "string",
          "name": "_bio",
          "type": "string"
        },
        {
          "internalType": "string",
          "name": "_avatar",
          "type": "string"
        }
      ],
      "name": "signup",
      "outputs": [],
      "stateMutability": "nonpayable",
      "type": "function"
    },
    {
      "inputs": [
        {
          "internalType": "address",
          "name": "",
          "type": "address"
        }
      ],
      "name": "usernames",
      "outputs": [
        {
          "internalType": "string",
          "name": "",
          "type": "string"
        }
      ],
      "stateMutability": "view",
      "type": "function"
    },
    {
      "inputs": [
        {
          "internalType": "string",
          "name": "",
          "type": "string"
        }
      ],
      "name": "users",
      "outputs": [
        {
          "internalType": "address",
          "name": "wallet",
          "type": "address"
        },
        {
          "internalType": "string",
          "name": "name",
          "type": "string"
        },
        {
          "internalType": "string",
          "name": "username",
          "type": "string"
        },
        {
          "internalType": "string",
          "name": "bio",
          "type": "string"
        },
        {
          "internalType": "string",
          "name": "avatar",
          "type": "string"
        }
      ],
      "stateMutability": "view",
      "type": "function"
    }
  ],
  "bytecode": "0x608060405234801561001057600080fd5b50611d88806100206000396000f3fe608060405234801561001057600080fd5b506004361061007d5760003560e01c80636f77926b1161005b5780636f77926b14610106578063d7798e5b14610136578063ee91877c14610154578063fcf58fa5146101845761007d565b806337dc190c14610082578063675164a4146100b6578063689e1c03146100d2575b600080fd5b61009c600480360381019061009791906113a2565b6101a0565b6040516100ad959493929190611806565b60405180910390f35b6100d060048036038101906100cb919061129e565b610316565b005b6100ec60048036038101906100e7919061129e565b61061d565b6040516100fd959493929190611797565b60405180910390f35b610120600480360381019061011b9190611275565b6108a9565b60405161012d919061194b565b60405180910390f35b61013e610bbd565b60405161014b9190611867565b60405180910390f35b61016e60048036038101906101699190611275565b610daa565b60405161017b9190611889565b60405180910390f35b61019e600480360381019061019991906112df565b610e4a565b005b600081815481106101b057600080fd5b90600052602060002090600502016000915090508060000160009054906101000a900473ffffffffffffffffffffffffffffffffffffffff16908060010180546101f990611ac7565b80601f016020809104026020016040519081016040528092919081815260200182805461022590611ac7565b80156102725780601f1061024757610100808354040283529160200191610272565b820191906000526020600020905b81548152906001019060200180831161025557829003601f168201915b50505050509080600201549080600301549080600401805461029390611ac7565b80601f01602080910402602001604051908101604052809291908181526020018280546102bf90611ac7565b801561030c5780601f106102e15761010080835404028352916020019161030c565b820191906000526020600020905b8154815290600101906020018083116102ef57829003601f168201915b5050505050905085565b6000600160003373ffffffffffffffffffffffffffffffffffffffff1673ffffffffffffffffffffffffffffffffffffffff168152602001908152602001600020805461036290611ac7565b9050116103a4576040517f08c379a000000000000000000000000000000000000000000000000000000000815260040161039b906118cb565b60405180910390fd5b60008151116103e8576040517f08c379a00000000000000000000000000000000000000000000000000000000081526004016103df9061192b565b60405180910390fd5b608c8151111561042d576040517f08c379a0000000000000000000000000000000000000000000000000000000008152600401610424906118eb565b60405180910390fd5b60006040518060a001604052803373ffffffffffffffffffffffffffffffffffffffff168152602001838152602001428152602001600081526020016002600160003373ffffffffffffffffffffffffffffffffffffffff1673ffffffffffffffffffffffffffffffffffffffff1681526020019081526020016000206040516104b79190611780565b908152602001604051809103902060040180546104d390611ac7565b80601f01602080910402602001604051908101604052809291908181526020018280546104ff90611ac7565b801561054c5780601f106105215761010080835404028352916020019161054c565b820191906000526020600020905b81548152906001019060200180831161052f57829003601f168201915b50505050508152509050600081908060018154018082558091505060019003906000526020600020906005020160009091909190915060008201518160000160006101000a81548173ffffffffffffffffffffffffffffffffffffffff021916908373ffffffffffffffffffffffffffffffffffffffff16021790555060208201518160010190805190602001906105e59291906110fb565b50604082015181600201556060820151816003015560808201518160040190805190602001906106169291906110fb565b5050505050565b6002818051602081018201805184825260208301602085012081835280955050505050506000915090508060000160009054906101000a900473ffffffffffffffffffffffffffffffffffffffff169080600101805461067c90611ac7565b80601f01602080910402602001604051908101604052809291908181526020018280546106a890611ac7565b80156106f55780601f106106ca576101008083540402835291602001916106f5565b820191906000526020600020905b8154815290600101906020018083116106d857829003601f168201915b50505050509080600201805461070a90611ac7565b80601f016020809104026020016040519081016040528092919081815260200182805461073690611ac7565b80156107835780601f1061075857610100808354040283529160200191610783565b820191906000526020600020905b81548152906001019060200180831161076657829003601f168201915b50505050509080600301805461079890611ac7565b80601f01602080910402602001604051908101604052809291908181526020018280546107c490611ac7565b80156108115780601f106107e657610100808354040283529160200191610811565b820191906000526020600020905b8154815290600101906020018083116107f457829003601f168201915b50505050509080600401805461082690611ac7565b80601f016020809104026020016040519081016040528092919081815260200182805461085290611ac7565b801561089f5780601f106108745761010080835404028352916020019161089f565b820191906000526020600020905b81548152906001019060200180831161088257829003601f168201915b5050505050905085565b6108b1611181565b6002600160008473ffffffffffffffffffffffffffffffffffffffff1673ffffffffffffffffffffffffffffffffffffffff1681526020019081526020016000206040516108ff9190611780565b90815260200160405180910390206040518060a00160405290816000820160009054906101000a900473ffffffffffffffffffffffffffffffffffffffff1673ffffffffffffffffffffffffffffffffffffffff1673ffffffffffffffffffffffffffffffffffffffff16815260200160018201805461097e90611ac7565b80601f01602080910402602001604051908101604052809291908181526020018280546109aa90611ac7565b80156109f75780601f106109cc576101008083540402835291602001916109f7565b820191906000526020600020905b8154815290600101906020018083116109da57829003601f168201915b50505050508152602001600282018054610a1090611ac7565b80601f0160208091040260200160405190810160405280929190818152602001828054610a3c90611ac7565b8015610a895780601f10610a5e57610100808354040283529160200191610a89565b820191906000526020600020905b815481529060010190602001808311610a6c57829003601f168201915b50505050508152602001600382018054610aa290611ac7565b80601f0160208091040260200160405190810160405280929190818152602001828054610ace90611ac7565b8015610b1b5780601f10610af057610100808354040283529160200191610b1b565b820191906000526020600020905b815481529060010190602001808311610afe57829003601f168201915b50505050508152602001600482018054610b3490611ac7565b80601f0160208091040260200160405190810160405280929190818152602001828054610b6090611ac7565b8015610bad5780601f10610b8257610100808354040283529160200191610bad565b820191906000526020600020905b815481529060010190602001808311610b9057829003601f168201915b5050505050815250509050919050565b60606000805480602002602001604051908101604052809291908181526020016000905b82821015610da157838290600052602060002090600502016040518060a00160405290816000820160009054906101000a900473ffffffffffffffffffffffffffffffffffffffff1673ffffffffffffffffffffffffffffffffffffffff1673ffffffffffffffffffffffffffffffffffffffff168152602001600182018054610c6a90611ac7565b80601f0160208091040260200160405190810160405280929190818152602001828054610c9690611ac7565b8015610ce35780601f10610cb857610100808354040283529160200191610ce3565b820191906000526020600020905b815481529060010190602001808311610cc657829003601f168201915b505050505081526020016002820154815260200160038201548152602001600482018054610d1090611ac7565b80601f0160208091040260200160405190810160405280929190818152602001828054610d3c90611ac7565b8015610d895780601f10610d5e57610100808354040283529160200191610d89565b820191906000526020600020905b815481529060010190602001808311610d6c57829003601f168201915b50505050508152505081526020019060010190610be1565b50505050905090565b60016020528060005260406000206000915090508054610dc990611ac7565b80601f0160208091040260200160405190810160405280929190818152602001828054610df590611ac7565b8015610e425780601f10610e1757610100808354040283529160200191610e42565b820191906000526020600020905b815481529060010190602001808311610e2557829003601f168201915b505050505081565b6000600160003373ffffffffffffffffffffffffffffffffffffffff1673ffffffffffffffffffffffffffffffffffffffff1681526020019081526020016000208054610e9690611ac7565b905014610ed8576040517f08c379a0000000000000000000000000000000000000000000000000000000008152600401610ecf9061190b565b60405180910390fd5b600073ffffffffffffffffffffffffffffffffffffffff16600285604051610f009190611769565b908152602001604051809103902060000160009054906101000a900473ffffffffffffffffffffffffffffffffffffffff1673ffffffffffffffffffffffffffffffffffffffff1614610f88576040517f08c379a0000000000000000000000000000000000000000000000000000000008152600401610f7f906118ab565b60405180910390fd5b6040518060a001604052803373ffffffffffffffffffffffffffffffffffffffff16815260200184815260200185815260200183815260200182815250600285604051610fd59190611769565b908152602001604051809103902060008201518160000160006101000a81548173ffffffffffffffffffffffffffffffffffffffff021916908373ffffffffffffffffffffffffffffffffffffffff16021790555060208201518160010190805190602001906110469291906110fb565b5060408201518160020190805190602001906110639291906110fb565b5060608201518160030190805190602001906110809291906110fb565b50608082015181600401908051906020019061109d9291906110fb565b5090505083600160003373ffffffffffffffffffffffffffffffffffffffff1673ffffffffffffffffffffffffffffffffffffffff16815260200190815260200160002090805190602001906110f49291906110fb565b5050505050565b82805461110790611ac7565b90600052602060002090601f0160209004810192826111295760008555611170565b82601f1061114257805160ff1916838001178555611170565b82800160010185558215611170579182015b8281111561116f578251825591602001919060010190611154565b5b50905061117d91906111c6565b5090565b6040518060a00160405280600073ffffffffffffffffffffffffffffffffffffffff168152602001606081526020016060815260200160608152602001606081525090565b5b808211156111df5760008160009055506001016111c7565b5090565b60006111f66111f184611992565b61196d565b90508281526020810184848401111561120e57600080fd5b611219848285611a85565b509392505050565b60008135905061123081611d24565b92915050565b600082601f83011261124757600080fd5b81356112578482602086016111e3565b91505092915050565b60008135905061126f81611d3b565b92915050565b60006020828403121561128757600080fd5b600061129584828501611221565b91505092915050565b6000602082840312156112b057600080fd5b600082013567ffffffffffffffff8111156112ca57600080fd5b6112d684828501611236565b91505092915050565b600080600080608085870312156112f557600080fd5b600085013567ffffffffffffffff81111561130f57600080fd5b61131b87828801611236565b945050602085013567ffffffffffffffff81111561133857600080fd5b61134487828801611236565b935050604085013567ffffffffffffffff81111561136157600080fd5b61136d87828801611236565b925050606085013567ffffffffffffffff81111561138a57600080fd5b61139687828801611236565b91505092959194509250565b6000602082840312156113b457600080fd5b60006113c284828501611260565b91505092915050565b60006113d78383611643565b905092915050565b6113e881611a49565b82525050565b6113f781611a49565b82525050565b6000611408826119e8565b6114128185611a0b565b935083602082028501611424856119c3565b8060005b85811015611460578484038952815161144185826113cb565b945061144c836119fe565b925060208a01995050600181019050611428565b50829750879550505050505092915050565b600061147d826119f3565b6114878185611a1c565b9350611497818560208601611a94565b6114a081611b88565b840191505092915050565b60006114b6826119f3565b6114c08185611a2d565b93506114d0818560208601611a94565b6114d981611b88565b840191505092915050565b60006114ef826119f3565b6114f98185611a3e565b9350611509818560208601611a94565b80840191505092915050565b6000815461152281611ac7565b61152c8186611a3e565b9450600182166000811461154757600181146115585761158b565b60ff1983168652818601935061158b565b611561856119d3565b60005b8381101561158357815481890152600182019150602081019050611564565b838801955050505b50505092915050565b60006115a1603683611a2d565b91506115ac82611b99565b604082019050919050565b60006115c4602a83611a2d565b91506115cf82611be8565b604082019050919050565b60006115e7603783611a2d565b91506115f282611c37565b604082019050919050565b600061160a602383611a2d565b915061161582611c86565b604082019050919050565b600061162d602283611a2d565b915061163882611cd5565b604082019050919050565b600060a08301600083015161165b60008601826113df565b50602083015184820360208601526116738282611472565b9150506040830151611688604086018261174b565b50606083015161169b606086018261174b565b50608083015184820360808601526116b38282611472565b9150508091505092915050565b600060a0830160008301516116d860008601826113df565b50602083015184820360208601526116f08282611472565b9150506040830151848203604086015261170a8282611472565b915050606083015184820360608601526117248282611472565b9150506080830151848203608086015261173e8282611472565b9150508091505092915050565b61175481611a7b565b82525050565b61176381611a7b565b82525050565b600061177582846114e4565b915081905092915050565b600061178c8284611515565b915081905092915050565b600060a0820190506117ac60008301886113ee565b81810360208301526117be81876114ab565b905081810360408301526117d281866114ab565b905081810360608301526117e681856114ab565b905081810360808301526117fa81846114ab565b90509695505050505050565b600060a08201905061181b60008301886113ee565b818103602083015261182d81876114ab565b905061183c604083018661175a565b611849606083018561175a565b818103608083015261185b81846114ab565b90509695505050505050565b6000602082019050818103600083015261188181846113fd565b905092915050565b600060208201905081810360008301526118a381846114ab565b905092915050565b600060208201905081810360008301526118c481611594565b9050919050565b600060208201905081810360008301526118e4816115b7565b9050919050565b60006020820190508181036000830152611904816115da565b9050919050565b60006020820190508181036000830152611924816115fd565b9050919050565b6000602082019050818103600083015261194481611620565b9050919050565b6000602082019050818103600083015261196581846116c0565b905092915050565b6000611977611988565b90506119838282611af9565b919050565b6000604051905090565b600067ffffffffffffffff8211156119ad576119ac611b59565b5b6119b682611b88565b9050602081019050919050565b6000819050602082019050919050565b60008190508160005260206000209050919050565b600081519050919050565b600081519050919050565b6000602082019050919050565b600082825260208201905092915050565b600082825260208201905092915050565b600082825260208201905092915050565b600081905092915050565b6000611a5482611a5b565b9050919050565b600073ffffffffffffffffffffffffffffffffffffffff82169050919050565b6000819050919050565b82818337600083830152505050565b60005b83811015611ab2578082015181840152602081019050611a97565b83811115611ac1576000848401525b50505050565b60006002820490506001821680611adf57607f821691505b60208210811415611af357611af2611b2a565b5b50919050565b611b0282611b88565b810181811067ffffffffffffffff82111715611b2157611b20611b59565b5b80604052505050565b7f4e487b7100000000000000000000000000000000000000000000000000000000600052602260045260246000fd5b7f4e487b7100000000000000000000000000000000000000000000000000000000600052604160045260246000fd5b6000601f19601f8301169050919050565b7f54686520757365726e616d6520697320616c72656164792074616b656e2c207060008201527f6c656173652074727920616e6f74686572206f6e652e00000000000000000000602082015250565b7f596f75206e65656420746f207369676e20757020666972737420746f20706f7360008201527f7420612044776565742e00000000000000000000000000000000000000000000602082015250565b7f54686520447765657420636f6e74656e742063616e6e6f74206265206c6f6e6760008201527f6572207468616e2031343020636861726163746572732e000000000000000000602082015250565b7f546865207573657220616c7265616479206578697374732c207472792061676160008201527f696e2e0000000000000000000000000000000000000000000000000000000000602082015250565b7f54686520447765657420636f6e74656e742063616e6e6f7420626520656d707460008201527f792e000000000000000000000000000000000000000000000000000000000000602082015250565b611d2d81611a49565b8114611d3857600080fd5b50565b611d4481611a7b565b8114611d4f57600080fd5b5056fea264697066735822122047ef7e309e692602a3c5aecc646216c177aafd467a200016671c727fcb6e126e64736f6c63430008040033",
  "linkReferences": {},
  "deployedLinkReferences": {}
}